{
  "_format": "hh-sol-artifact-1",
  "contractName": "CertificateManagement",
  "sourceName": "contracts/CertificateManagement.sol",
  "abi": [
    {
      "inputs": [],
      "stateMutability": "nonpayable",
      "type": "constructor"
    },
    {
      "anonymous": false,
      "inputs": [
        {
          "indexed": true,
          "internalType": "address",
          "name": "issuedTo",
          "type": "address"
        },
        {
          "indexed": false,
          "internalType": "string",
          "name": "certificateId",
          "type": "string"
        },
        {
          "indexed": false,
          "internalType": "string",
          "name": "ipfsHash",
          "type": "string"
        },
        {
          "indexed": false,
          "internalType": "string",
          "name": "instituteName",
          "type": "string"
        },
        {
          "indexed": false,
          "internalType": "string",
          "name": "candidateName",
          "type": "string"
        },
        {
          "indexed": false,
          "internalType": "string",
          "name": "courseOfStudy",
          "type": "string"
        },
        {
          "indexed": false,
          "internalType": "uint16",
          "name": "yearOfGraduation",
          "type": "uint16"
        },
        {
          "indexed": false,
          "internalType": "uint256",
          "name": "timestamp",
          "type": "uint256"
        }
      ],
      "name": "CertificateIssued",
      "type": "event"
    },
    {
      "anonymous": false,
      "inputs": [
        {
          "indexed": true,
          "internalType": "address",
          "name": "issuer",
          "type": "address"
        },
        {
          "indexed": false,
          "internalType": "string",
          "name": "certificateId",
          "type": "string"
        },
        {
          "indexed": false,
          "internalType": "string",
          "name": "ipfsHash",
          "type": "string"
        },
        {
          "indexed": false,
          "internalType": "string",
          "name": "candidateName",
          "type": "string"
        },
        {
          "indexed": false,
          "internalType": "uint256",
          "name": "timestamp",
          "type": "uint256"
        }
      ],
      "name": "CertificateUpload",
      "type": "event"
    },
    {
      "inputs": [],
      "name": "admin",
      "outputs": [
        {
          "internalType": "address",
          "name": "",
          "type": "address"
        }
      ],
      "stateMutability": "view",
      "type": "function"
    },
    {
      "inputs": [
        {
          "internalType": "address",
          "name": "",
          "type": "address"
        },
        {
          "internalType": "string",
          "name": "",
          "type": "string"
        }
      ],
      "name": "candidateToCertificateId",
      "outputs": [
        {
          "internalType": "string",
          "name": "",
          "type": "string"
        }
      ],
      "stateMutability": "view",
      "type": "function"
    },
    {
      "inputs": [
        {
          "internalType": "address",
          "name": "",
          "type": "address"
        },
        {
          "internalType": "string",
          "name": "",
          "type": "string"
        }
      ],
      "name": "certificateById",
      "outputs": [
        {
          "internalType": "string",
          "name": "",
          "type": "string"
        }
      ],
      "stateMutability": "view",
      "type": "function"
    },
    {
      "inputs": [
        {
          "internalType": "address",
          "name": "",
          "type": "address"
        },
        {
          "internalType": "string",
          "name": "",
          "type": "string"
        }
      ],
      "name": "certificates",
      "outputs": [
        {
          "internalType": "string",
          "name": "candidateName",
          "type": "string"
        },
        {
          "internalType": "string",
          "name": "ipfsHash",
          "type": "string"
        },
        {
          "internalType": "address",
          "name": "issuer",
          "type": "address"
        },
        {
          "internalType": "uint256",
          "name": "timestamp",
          "type": "uint256"
        }
      ],
      "stateMutability": "view",
      "type": "function"
    },
    {
      "inputs": [
        {
          "internalType": "address",
          "name": "",
          "type": "address"
        },
        {
          "internalType": "uint256",
          "name": "",
          "type": "uint256"
        }
      ],
      "name": "fullCertificates",
      "outputs": [
        {
          "internalType": "string",
          "name": "certificateId",
          "type": "string"
        },
        {
          "internalType": "string",
          "name": "ipfsHash",
          "type": "string"
        },
        {
          "internalType": "address",
          "name": "issuedTo",
          "type": "address"
        },
        {
          "internalType": "string",
          "name": "instituteName",
          "type": "string"
        },
        {
          "internalType": "string",
          "name": "candidateName",
          "type": "string"
        },
        {
          "internalType": "string",
          "name": "courseOfStudy",
          "type": "string"
        },
        {
          "internalType": "uint16",
          "name": "yearOfGraduation",
          "type": "uint16"
        },
        {
          "internalType": "uint256",
          "name": "timestamp",
          "type": "uint256"
        }
      ],
      "stateMutability": "view",
      "type": "function"
    },
    {
      "inputs": [
        {
          "internalType": "uint256",
          "name": "",
          "type": "uint256"
        }
      ],
      "name": "institutes",
      "outputs": [
        {
          "internalType": "address",
          "name": "",
          "type": "address"
        }
      ],
      "stateMutability": "view",
      "type": "function"
    },
    {
      "inputs": [
        {
          "internalType": "address",
          "name": "",
          "type": "address"
        },
        {
          "internalType": "uint256",
          "name": "",
          "type": "uint256"
        }
      ],
      "name": "ipfsCertificates",
      "outputs": [
        {
          "internalType": "string",
          "name": "certificateId",
          "type": "string"
        },
        {
          "internalType": "string",
          "name": "ipfsHash",
          "type": "string"
        },
        {
          "internalType": "string",
          "name": "candidateName",
          "type": "string"
        },
        {
          "internalType": "uint256",
          "name": "timestamp",
          "type": "uint256"
        }
      ],
      "stateMutability": "view",
      "type": "function"
    },
    {
      "inputs": [
        {
          "internalType": "string",
          "name": "_certificateId",
          "type": "string"
        },
        {
          "internalType": "string",
          "name": "_ipfsHash",
          "type": "string"
        },
        {
          "internalType": "string",
          "name": "_instituteName",
          "type": "string"
        },
        {
          "internalType": "string",
          "name": "_candidateName",
          "type": "string"
        },
        {
          "internalType": "string",
          "name": "_courseOfStudy",
          "type": "string"
        },
        {
          "internalType": "uint16",
          "name": "_yearOfGraduation",
          "type": "uint16"
        }
      ],
      "name": "issueCertificate",
      "outputs": [],
      "stateMutability": "nonpayable",
      "type": "function"
    },
    {
      "inputs": [
        {
          "internalType": "string",
          "name": "certificateId",
          "type": "string"
        },
        {
          "internalType": "string",
          "name": "candidateName",
          "type": "string"
        },
        {
          "internalType": "string",
          "name": "ipfsHash",
          "type": "string"
        }
      ],
      "name": "storeCertificate",
      "outputs": [],
      "stateMutability": "nonpayable",
      "type": "function"
    },
    {
      "inputs": [
        {
          "internalType": "string",
          "name": "_certificateId",
          "type": "string"
        },
        {
          "internalType": "string",
          "name": "_ipfsHash",
          "type": "string"
        },
        {
          "internalType": "string",
          "name": "_candidateName",
          "type": "string"
        }
      ],
      "name": "uploadCertificate",
      "outputs": [],
      "stateMutability": "nonpayable",
      "type": "function"
    }
  ],
  "bytecode": "0x608060405234801561001057600080fd5b50336000806101000a81548173ffffffffffffffffffffffffffffffffffffffff021916908373ffffffffffffffffffffffffffffffffffffffff1602179055506122d2806100606000396000f3fe608060405234801561001057600080fd5b506004361061009e5760003560e01c80635a7b502f116100665780635a7b502f1461017257806363e7e85b1461018e57806390ee20b0146101c1578063b0aef6bd146101f1578063f851a440146102245761009e565b806315bb8489146100a35780631b4615e0146100da5780633f1fd4ae1461010a57806342899d99146101265780634fa7557714610156575b600080fd5b6100bd60048036038101906100b89190611611565b610242565b6040516100d198979695949392919061171c565b60405180910390f35b6100f460048036038101906100ef91906118f2565b61057d565b604051610101919061194e565b60405180910390f35b610124600480360381019061011f919061199c565b610640565b005b610140600480360381019061013b91906118f2565b610b6a565b60405161014d919061194e565b60405180910390f35b610170600480360381019061016b9190611ab5565b610c2d565b005b61018c60048036038101906101879190611ab5565b610e16565b005b6101a860048036038101906101a391906118f2565b61119e565b6040516101b89493929190611b5c565b60405180910390f35b6101db60048036038101906101d69190611baf565b611321565b6040516101e89190611bdc565b60405180910390f35b61020b60048036038101906102069190611611565b611360565b60405161021b9493929190611bf7565b60405180910390f35b61022c611545565b6040516102399190611bdc565b60405180910390f35b6002602052816000526040600020818154811061025e57600080fd5b90600052602060002090600802016000915091505080600001805461028290611c80565b80601f01602080910402602001604051908101604052809291908181526020018280546102ae90611c80565b80156102fb5780601f106102d0576101008083540402835291602001916102fb565b820191906000526020600020905b8154815290600101906020018083116102de57829003601f168201915b50505050509080600101805461031090611c80565b80601f016020809104026020016040519081016040528092919081815260200182805461033c90611c80565b80156103895780601f1061035e57610100808354040283529160200191610389565b820191906000526020600020905b81548152906001019060200180831161036c57829003601f168201915b5050505050908060020160009054906101000a900473ffffffffffffffffffffffffffffffffffffffff16908060030180546103c490611c80565b80601f01602080910402602001604051908101604052809291908181526020018280546103f090611c80565b801561043d5780601f106104125761010080835404028352916020019161043d565b820191906000526020600020905b81548152906001019060200180831161042057829003601f168201915b50505050509080600401805461045290611c80565b80601f016020809104026020016040519081016040528092919081815260200182805461047e90611c80565b80156104cb5780601f106104a0576101008083540402835291602001916104cb565b820191906000526020600020905b8154815290600101906020018083116104ae57829003601f168201915b5050505050908060050180546104e090611c80565b80601f016020809104026020016040519081016040528092919081815260200182805461050c90611c80565b80156105595780601f1061052e57610100808354040283529160200191610559565b820191906000526020600020905b81548152906001019060200180831161053c57829003601f168201915b5050505050908060060160009054906101000a900461ffff16908060070154905088565b6004602052816000526040600020818051602081018201805184825260208301602085012081835280955050505050506000915091505080546105bf90611c80565b80601f01602080910402602001604051908101604052809291908181526020018280546105eb90611c80565b80156106385780601f1061060d57610100808354040283529160200191610638565b820191906000526020600020905b81548152906001019060200180831161061b57829003601f168201915b505050505081565b8585846000835111610687576040517f08c379a000000000000000000000000000000000000000000000000000000000815260040161067e90611cfd565b60405180910390fd5b60008251116106cb576040517f08c379a00000000000000000000000000000000000000000000000000000000081526004016106c290611d69565b60405180910390fd5b600081511161070f576040517f08c379a000000000000000000000000000000000000000000000000000000000815260040161070690611dd5565b60405180910390fd5b6000875111610753576040517f08c379a000000000000000000000000000000000000000000000000000000000815260040161074a90611e41565b60405180910390fd5b6000855111610797576040517f08c379a000000000000000000000000000000000000000000000000000000000815260040161078e90611ead565b60405180910390fd5b61076c8461ffff16116107df576040517f08c379a00000000000000000000000000000000000000000000000000000000081526004016107d690611f19565b60405180910390fd5b6000600260003373ffffffffffffffffffffffffffffffffffffffff1673ffffffffffffffffffffffffffffffffffffffff168152602001908152602001600020805490500361088d576006339080600181540180825580915050600190039060005260206000200160009091909190916101000a81548173ffffffffffffffffffffffffffffffffffffffff021916908373ffffffffffffffffffffffffffffffffffffffff1602179055505b6000429050600260003373ffffffffffffffffffffffffffffffffffffffff1673ffffffffffffffffffffffffffffffffffffffff1681526020019081526020016000206040518061010001604052808c81526020018b81526020013373ffffffffffffffffffffffffffffffffffffffff1681526020018a81526020018981526020018881526020018761ffff168152602001838152509080600181540180825580915050600190039060005260206000209060080201600090919091909150600082015181600001908161096391906120e5565b50602082015181600101908161097991906120e5565b5060408201518160020160006101000a81548173ffffffffffffffffffffffffffffffffffffffff021916908373ffffffffffffffffffffffffffffffffffffffff16021790555060608201518160030190816109d691906120e5565b5060808201518160040190816109ec91906120e5565b5060a0820151816005019081610a0291906120e5565b5060c08201518160060160006101000a81548161ffff021916908361ffff16021790555060e08201518160070155505089600360003373ffffffffffffffffffffffffffffffffffffffff1673ffffffffffffffffffffffffffffffffffffffff16815260200190815260200160002088604051610a8091906121f3565b90815260200160405180910390209081610a9a91906120e5565b5088600460003373ffffffffffffffffffffffffffffffffffffffff1673ffffffffffffffffffffffffffffffffffffffff1681526020019081526020016000208b604051610ae991906121f3565b90815260200160405180910390209081610b0391906120e5565b503373ffffffffffffffffffffffffffffffffffffffff167fad2ee2dc4b8b2a60f5707bcd2da433ed319be7ee677ec14182e96688752cf3588b8b8b8b8b8b88604051610b56979695949392919061220a565b60405180910390a250505050505050505050565b600360205281600052604060002081805160208101820180518482526020830160208501208183528095505050505050600091509150508054610bac90611c80565b80601f0160208091040260200160405190810160405280929190818152602001828054610bd890611c80565b8015610c255780601f10610bfa57610100808354040283529160200191610c25565b820191906000526020600020905b815481529060010190602001808311610c0857829003601f168201915b505050505081565b8281836000835111610c74576040517f08c379a0000000000000000000000000000000000000000000000000000000008152600401610c6b90611cfd565b60405180910390fd5b6000825111610cb8576040517f08c379a0000000000000000000000000000000000000000000000000000000008152600401610caf90611d69565b60405180910390fd5b6000815111610cfc576040517f08c379a0000000000000000000000000000000000000000000000000000000008152600401610cf390611dd5565b60405180910390fd5b60405180608001604052808681526020018581526020013373ffffffffffffffffffffffffffffffffffffffff16815260200142815250600560003373ffffffffffffffffffffffffffffffffffffffff1673ffffffffffffffffffffffffffffffffffffffff16815260200190815260200160002087604051610d8091906121f3565b90815260200160405180910390206000820151816000019081610da391906120e5565b506020820151816001019081610db991906120e5565b5060408201518160020160006101000a81548173ffffffffffffffffffffffffffffffffffffffff021916908373ffffffffffffffffffffffffffffffffffffffff16021790555060608201518160030155905050505050505050565b8282826000835111610e5d576040517f08c379a0000000000000000000000000000000000000000000000000000000008152600401610e5490611cfd565b60405180910390fd5b6000825111610ea1576040517f08c379a0000000000000000000000000000000000000000000000000000000008152600401610e9890611d69565b60405180910390fd5b6000815111610ee5576040517f08c379a0000000000000000000000000000000000000000000000000000000008152600401610edc90611dd5565b60405180910390fd5b6000600160003373ffffffffffffffffffffffffffffffffffffffff1673ffffffffffffffffffffffffffffffffffffffff1681526020019081526020016000208054905003610f93576006339080600181540180825580915050600190039060005260206000200160009091909190916101000a81548173ffffffffffffffffffffffffffffffffffffffff021916908373ffffffffffffffffffffffffffffffffffffffff1602179055505b6000429050600160003373ffffffffffffffffffffffffffffffffffffffff1673ffffffffffffffffffffffffffffffffffffffff1681526020019081526020016000206040518060800160405280898152602001888152602001878152602001838152509080600181540180825580915050600190039060005260206000209060040201600090919091909150600082015181600001908161103691906120e5565b50602082015181600101908161104c91906120e5565b50604082015181600201908161106291906120e5565b5060608201518160030155505086600360003373ffffffffffffffffffffffffffffffffffffffff1673ffffffffffffffffffffffffffffffffffffffff168152602001908152602001600020866040516110bd91906121f3565b908152602001604051809103902090816110d791906120e5565b5085600460003373ffffffffffffffffffffffffffffffffffffffff1673ffffffffffffffffffffffffffffffffffffffff1681526020019081526020016000208860405161112691906121f3565b9081526020016040518091039020908161114091906120e5565b503373ffffffffffffffffffffffffffffffffffffffff167f11f8e09eca6ae44c060ac928a3610d5b7b12a7b543738967a292e838137915df8888888560405161118d9493929190611bf7565b60405180910390a250505050505050565b600560205281600052604060002081805160208101820180518482526020830160208501208183528095505050505050600091509150508060000180546111e490611c80565b80601f016020809104026020016040519081016040528092919081815260200182805461121090611c80565b801561125d5780601f106112325761010080835404028352916020019161125d565b820191906000526020600020905b81548152906001019060200180831161124057829003601f168201915b50505050509080600101805461127290611c80565b80601f016020809104026020016040519081016040528092919081815260200182805461129e90611c80565b80156112eb5780601f106112c0576101008083540402835291602001916112eb565b820191906000526020600020905b8154815290600101906020018083116112ce57829003601f168201915b5050505050908060020160009054906101000a900473ffffffffffffffffffffffffffffffffffffffff16908060030154905084565b6006818154811061133157600080fd5b906000526020600020016000915054906101000a900473ffffffffffffffffffffffffffffffffffffffff1681565b6001602052816000526040600020818154811061137c57600080fd5b9060005260206000209060040201600091509150508060000180546113a090611c80565b80601f01602080910402602001604051908101604052809291908181526020018280546113cc90611c80565b80156114195780601f106113ee57610100808354040283529160200191611419565b820191906000526020600020905b8154815290600101906020018083116113fc57829003601f168201915b50505050509080600101805461142e90611c80565b80601f016020809104026020016040519081016040528092919081815260200182805461145a90611c80565b80156114a75780601f1061147c576101008083540402835291602001916114a7565b820191906000526020600020905b81548152906001019060200180831161148a57829003601f168201915b5050505050908060020180546114bc90611c80565b80601f01602080910402602001604051908101604052809291908181526020018280546114e890611c80565b80156115355780601f1061150a57610100808354040283529160200191611535565b820191906000526020600020905b81548152906001019060200180831161151857829003601f168201915b5050505050908060030154905084565b60008054906101000a900473ffffffffffffffffffffffffffffffffffffffff1681565b6000604051905090565b600080fd5b600080fd5b600073ffffffffffffffffffffffffffffffffffffffff82169050919050565b60006115a88261157d565b9050919050565b6115b88161159d565b81146115c357600080fd5b50565b6000813590506115d5816115af565b92915050565b6000819050919050565b6115ee816115db565b81146115f957600080fd5b50565b60008135905061160b816115e5565b92915050565b6000806040838503121561162857611627611573565b5b6000611636858286016115c6565b9250506020611647858286016115fc565b9150509250929050565b600081519050919050565b600082825260208201905092915050565b60005b8381101561168b578082015181840152602081019050611670565b60008484015250505050565b6000601f19601f8301169050919050565b60006116b382611651565b6116bd818561165c565b93506116cd81856020860161166d565b6116d681611697565b840191505092915050565b6116ea8161159d565b82525050565b600061ffff82169050919050565b611707816116f0565b82525050565b611716816115db565b82525050565b6000610100820190508181036000830152611737818b6116a8565b9050818103602083015261174b818a6116a8565b905061175a60408301896116e1565b818103606083015261176c81886116a8565b9050818103608083015261178081876116a8565b905081810360a083015261179481866116a8565b90506117a360c08301856116fe565b6117b060e083018461170d565b9998505050505050505050565b600080fd5b600080fd5b7f4e487b7100000000000000000000000000000000000000000000000000000000600052604160045260246000fd5b6117ff82611697565b810181811067ffffffffffffffff8211171561181e5761181d6117c7565b5b80604052505050565b6000611831611569565b905061183d82826117f6565b919050565b600067ffffffffffffffff82111561185d5761185c6117c7565b5b61186682611697565b9050602081019050919050565b82818337600083830152505050565b600061189561189084611842565b611827565b9050828152602081018484840111156118b1576118b06117c2565b5b6118bc848285611873565b509392505050565b600082601f8301126118d9576118d86117bd565b5b81356118e9848260208601611882565b91505092915050565b6000806040838503121561190957611908611573565b5b6000611917858286016115c6565b925050602083013567ffffffffffffffff81111561193857611937611578565b5b611944858286016118c4565b9150509250929050565b6000602082019050818103600083015261196881846116a8565b905092915050565b611979816116f0565b811461198457600080fd5b50565b60008135905061199681611970565b92915050565b60008060008060008060c087890312156119b9576119b8611573565b5b600087013567ffffffffffffffff8111156119d7576119d6611578565b5b6119e389828a016118c4565b965050602087013567ffffffffffffffff811115611a0457611a03611578565b5b611a1089828a016118c4565b955050604087013567ffffffffffffffff811115611a3157611a30611578565b5b611a3d89828a016118c4565b945050606087013567ffffffffffffffff811115611a5e57611a5d611578565b5b611a6a89828a016118c4565b935050608087013567ffffffffffffffff811115611a8b57611a8a611578565b5b611a9789828a016118c4565b92505060a0611aa889828a01611987565b9150509295509295509295565b600080600060608486031215611ace57611acd611573565b5b600084013567ffffffffffffffff811115611aec57611aeb611578565b5b611af8868287016118c4565b935050602084013567ffffffffffffffff811115611b1957611b18611578565b5b611b25868287016118c4565b925050604084013567ffffffffffffffff811115611b4657611b45611578565b5b611b52868287016118c4565b9150509250925092565b60006080820190508181036000830152611b7681876116a8565b90508181036020830152611b8a81866116a8565b9050611b9960408301856116e1565b611ba6606083018461170d565b95945050505050565b600060208284031215611bc557611bc4611573565b5b6000611bd3848285016115fc565b91505092915050565b6000602082019050611bf160008301846116e1565b92915050565b60006080820190508181036000830152611c1181876116a8565b90508181036020830152611c2581866116a8565b90508181036040830152611c3981856116a8565b9050611c48606083018461170d565b95945050505050565b7f4e487b7100000000000000000000000000000000000000000000000000000000600052602260045260246000fd5b60006002820490506001821680611c9857607f821691505b602082108103611cab57611caa611c51565b5b50919050565b7f43657274696669636174652049442063616e6e6f7420626520656d7074790000600082015250565b6000611ce7601e8361165c565b9150611cf282611cb1565b602082019050919050565b60006020820190508181036000830152611d1681611cda565b9050919050565b7f4950465320686173682063616e6e6f7420626520656d70747900000000000000600082015250565b6000611d5360198361165c565b9150611d5e82611d1d565b602082019050919050565b60006020820190508181036000830152611d8281611d46565b9050919050565b7f43616e646964617465206e616d652063616e6e6f7420626520656d7074790000600082015250565b6000611dbf601e8361165c565b9150611dca82611d89565b602082019050919050565b60006020820190508181036000830152611dee81611db2565b9050919050565b7f496e73746974757465206e616d652063616e6e6f7420626520656d7074790000600082015250565b6000611e2b601e8361165c565b9150611e3682611df5565b602082019050919050565b60006020820190508181036000830152611e5a81611e1e565b9050919050565b7f436f75727365206f662073747564792063616e6e6f7420626520656d70747900600082015250565b6000611e97601f8361165c565b9150611ea282611e61565b602082019050919050565b60006020820190508181036000830152611ec681611e8a565b9050919050565b7f496e76616c69642067726164756174696f6e2079656172000000000000000000600082015250565b6000611f0360178361165c565b9150611f0e82611ecd565b602082019050919050565b60006020820190508181036000830152611f3281611ef6565b9050919050565b60008190508160005260206000209050919050565b60006020601f8301049050919050565b600082821b905092915050565b600060088302611f9b7fffffffffffffffffffffffffffffffffffffffffffffffffffffffffffffffff82611f5e565b611fa58683611f5e565b95508019841693508086168417925050509392505050565b6000819050919050565b6000611fe2611fdd611fd8846115db565b611fbd565b6115db565b9050919050565b6000819050919050565b611ffc83611fc7565b61201061200882611fe9565b848454611f6b565b825550505050565b600090565b612025612018565b612030818484611ff3565b505050565b5b818110156120545761204960008261201d565b600181019050612036565b5050565b601f8211156120995761206a81611f39565b61207384611f4e565b81016020851015612082578190505b61209661208e85611f4e565b830182612035565b50505b505050565b600082821c905092915050565b60006120bc6000198460080261209e565b1980831691505092915050565b60006120d583836120ab565b9150826002028217905092915050565b6120ee82611651565b67ffffffffffffffff811115612107576121066117c7565b5b6121118254611c80565b61211c828285612058565b600060209050601f83116001811461214f576000841561213d578287015190505b61214785826120c9565b8655506121af565b601f19841661215d86611f39565b60005b8281101561218557848901518255600182019150602085019450602081019050612160565b868310156121a2578489015161219e601f8916826120ab565b8355505b6001600288020188555050505b505050505050565b600081905092915050565b60006121cd82611651565b6121d781856121b7565b93506121e781856020860161166d565b80840191505092915050565b60006121ff82846121c2565b915081905092915050565b600060e0820190508181036000830152612224818a6116a8565b9050818103602083015261223881896116a8565b9050818103604083015261224c81886116a8565b9050818103606083015261226081876116a8565b9050818103608083015261227481866116a8565b905061228360a08301856116fe565b61229060c083018461170d565b9897505050505050505056fea2646970667358221220516d56a2654b8fd501fbe822e2e1a053d4ee3870c561aa2e087f98174b57053b64736f6c63430008110033",
  "linkReferences": {},
  "deployedLinkReferences": {}
}